{
  "_format": "hh-sol-artifact-1",
  "contractName": "NFTCollection",
  "sourceName": "contracts/NFTCollection.sol",
  "abi": [
    {
      "inputs": [],
      "stateMutability": "nonpayable",
      "type": "constructor"
    },
    {
      "anonymous": false,
      "inputs": [
        {
          "indexed": true,
          "internalType": "address",
          "name": "owner",
          "type": "address"
        },
        {
          "indexed": true,
          "internalType": "address",
          "name": "approved",
          "type": "address"
        },
        {
          "indexed": true,
          "internalType": "uint256",
          "name": "tokenId",
          "type": "uint256"
        }
      ],
      "name": "Approval",
      "type": "event"
    },
    {
      "anonymous": false,
      "inputs": [
        {
          "indexed": true,
          "internalType": "address",
          "name": "owner",
          "type": "address"
        },
        {
          "indexed": true,
          "internalType": "address",
          "name": "operator",
          "type": "address"
        },
        {
          "indexed": false,
          "internalType": "bool",
          "name": "approved",
          "type": "bool"
        }
      ],
      "name": "ApprovalForAll",
      "type": "event"
    },
    {
      "anonymous": false,
      "inputs": [
        {
          "indexed": true,
          "internalType": "address",
          "name": "from",
          "type": "address"
        },
        {
          "indexed": true,
          "internalType": "address",
          "name": "to",
          "type": "address"
        },
        {
          "indexed": true,
          "internalType": "uint256",
          "name": "tokenId",
          "type": "uint256"
        }
      ],
      "name": "Transfer",
      "type": "event"
    },
    {
      "inputs": [
        {
          "internalType": "address",
          "name": "to",
          "type": "address"
        },
        {
          "internalType": "uint256",
          "name": "tokenId",
          "type": "uint256"
        }
      ],
      "name": "approve",
      "outputs": [],
      "stateMutability": "nonpayable",
      "type": "function"
    },
    {
      "inputs": [
        {
          "internalType": "address",
          "name": "owner",
          "type": "address"
        }
      ],
      "name": "balanceOf",
      "outputs": [
        {
          "internalType": "uint256",
          "name": "",
          "type": "uint256"
        }
      ],
      "stateMutability": "view",
      "type": "function"
    },
    {
      "inputs": [
        {
          "internalType": "uint256",
          "name": "tokenId",
          "type": "uint256"
        }
      ],
      "name": "getApproved",
      "outputs": [
        {
          "internalType": "address",
          "name": "",
          "type": "address"
        }
      ],
      "stateMutability": "view",
      "type": "function"
    },
    {
      "inputs": [
        {
          "internalType": "address",
          "name": "owner",
          "type": "address"
        },
        {
          "internalType": "address",
          "name": "operator",
          "type": "address"
        }
      ],
      "name": "isApprovedForAll",
      "outputs": [
        {
          "internalType": "bool",
          "name": "",
          "type": "bool"
        }
      ],
      "stateMutability": "view",
      "type": "function"
    },
    {
      "inputs": [],
      "name": "makeNFT",
      "outputs": [],
      "stateMutability": "nonpayable",
      "type": "function"
    },
    {
      "inputs": [],
      "name": "name",
      "outputs": [
        {
          "internalType": "string",
          "name": "",
          "type": "string"
        }
      ],
      "stateMutability": "view",
      "type": "function"
    },
    {
      "inputs": [
        {
          "internalType": "uint256",
          "name": "tokenId",
          "type": "uint256"
        }
      ],
      "name": "ownerOf",
      "outputs": [
        {
          "internalType": "address",
          "name": "",
          "type": "address"
        }
      ],
      "stateMutability": "view",
      "type": "function"
    },
    {
      "inputs": [
        {
          "internalType": "uint256",
          "name": "tokenId",
          "type": "uint256"
        }
      ],
      "name": "pickRandomFirstWord",
      "outputs": [
        {
          "internalType": "string",
          "name": "",
          "type": "string"
        }
      ],
      "stateMutability": "view",
      "type": "function"
    },
    {
      "inputs": [
        {
          "internalType": "uint256",
          "name": "tokenId",
          "type": "uint256"
        }
      ],
      "name": "pickRandomSecondWord",
      "outputs": [
        {
          "internalType": "string",
          "name": "",
          "type": "string"
        }
      ],
      "stateMutability": "view",
      "type": "function"
    },
    {
      "inputs": [
        {
          "internalType": "uint256",
          "name": "tokenId",
          "type": "uint256"
        }
      ],
      "name": "pickRandomThirdWord",
      "outputs": [
        {
          "internalType": "string",
          "name": "",
          "type": "string"
        }
      ],
      "stateMutability": "view",
      "type": "function"
    },
    {
      "inputs": [
        {
          "internalType": "address",
          "name": "from",
          "type": "address"
        },
        {
          "internalType": "address",
          "name": "to",
          "type": "address"
        },
        {
          "internalType": "uint256",
          "name": "tokenId",
          "type": "uint256"
        }
      ],
      "name": "safeTransferFrom",
      "outputs": [],
      "stateMutability": "nonpayable",
      "type": "function"
    },
    {
      "inputs": [
        {
          "internalType": "address",
          "name": "from",
          "type": "address"
        },
        {
          "internalType": "address",
          "name": "to",
          "type": "address"
        },
        {
          "internalType": "uint256",
          "name": "tokenId",
          "type": "uint256"
        },
        {
          "internalType": "bytes",
          "name": "data",
          "type": "bytes"
        }
      ],
      "name": "safeTransferFrom",
      "outputs": [],
      "stateMutability": "nonpayable",
      "type": "function"
    },
    {
      "inputs": [
        {
          "internalType": "address",
          "name": "operator",
          "type": "address"
        },
        {
          "internalType": "bool",
          "name": "approved",
          "type": "bool"
        }
      ],
      "name": "setApprovalForAll",
      "outputs": [],
      "stateMutability": "nonpayable",
      "type": "function"
    },
    {
      "inputs": [
        {
          "internalType": "bytes4",
          "name": "interfaceId",
          "type": "bytes4"
        }
      ],
      "name": "supportsInterface",
      "outputs": [
        {
          "internalType": "bool",
          "name": "",
          "type": "bool"
        }
      ],
      "stateMutability": "view",
      "type": "function"
    },
    {
      "inputs": [],
      "name": "symbol",
      "outputs": [
        {
          "internalType": "string",
          "name": "",
          "type": "string"
        }
      ],
      "stateMutability": "view",
      "type": "function"
    },
    {
      "inputs": [
        {
          "internalType": "uint256",
          "name": "tokenId",
          "type": "uint256"
        }
      ],
      "name": "tokenURI",
      "outputs": [
        {
          "internalType": "string",
          "name": "",
          "type": "string"
        }
      ],
      "stateMutability": "view",
      "type": "function"
    },
    {
      "inputs": [
        {
          "internalType": "address",
          "name": "from",
          "type": "address"
        },
        {
          "internalType": "address",
          "name": "to",
          "type": "address"
        },
        {
          "internalType": "uint256",
          "name": "tokenId",
          "type": "uint256"
        }
      ],
      "name": "transferFrom",
      "outputs": [],
      "stateMutability": "nonpayable",
      "type": "function"
    }
  ],
  "bytecode": "0x608060405260405180610160016040528061012f8152602001620041c461012f91396008908051906020019062000038929190620006f4565b506040518060e001604052806040518060400160405280600481526020017f636974790000000000000000000000000000000000000000000000000000000081525081526020016040518060400160405280600581526020017f6272616e6400000000000000000000000000000000000000000000000000000081525081526020016040518060400160405280600481526020017f6d6f6f6e0000000000000000000000000000000000000000000000000000000081525081526020016040518060400160405280600681526020017f6d616e616765000000000000000000000000000000000000000000000000000081525081526020016040518060400160405280600881526020017f7072656461746f7200000000000000000000000000000000000000000000000081525081526020016040518060400160405280600781526020017f6c696d697465640000000000000000000000000000000000000000000000000081525081526020016040518060400160405280600381526020017f73696e00000000000000000000000000000000000000000000000000000000008152508152506009906007620001f192919062000785565b506040518060c001604052806040518060400160405280600981526020017f69736f6c6174696f6e000000000000000000000000000000000000000000000081525081526020016040518060400160405280600681526020017f6e6f74696365000000000000000000000000000000000000000000000000000081525081526020016040518060400160405280600881526020017f646973637265657400000000000000000000000000000000000000000000000081525081526020016040518060400160405280600a81526020017f65786869626974696f6e0000000000000000000000000000000000000000000081525081526020016040518060400160405280600681526020017f6f6666696365000000000000000000000000000000000000000000000000000081525081526020016040518060400160405280600481526020017f6272616700000000000000000000000000000000000000000000000000000000815250815250600a9060066200036f929190620007ec565b506040518060e001604052806040518060400160405280600881526020017f646973617374657200000000000000000000000000000000000000000000000081525081526020016040518060400160405280600481526020017f7465616d0000000000000000000000000000000000000000000000000000000081525081526020016040518060400160405280600681526020017f72657665616c000000000000000000000000000000000000000000000000000081525081526020016040518060400160405280600881526020017f6465746563746f7200000000000000000000000000000000000000000000000081525081526020016040518060400160405280600b81526020017f6772616e646d6f7468657200000000000000000000000000000000000000000081525081526020016040518060400160405280600b81526020017f696e74657261637469766500000000000000000000000000000000000000000081525081526020016040518060400160405280600781526020017f73706c7572676500000000000000000000000000000000000000000000000000815250815250600b9060076200052892919062000785565b503480156200053657600080fd5b506040518060400160405280600981526020017f5371756172654e465400000000000000000000000000000000000000000000008152506040518060400160405280600681526020017f53515541524500000000000000000000000000000000000000000000000000008152508160009080519060200190620005bb929190620006f4565b508060019080519060200190620005d4929190620006f4565b505050620006226040518060400160405280601881526020017f54686973206973206d79204e465420636f6e74726163742e00000000000000008152506200062860201b620010b51760201c565b62000a0d565b620006c8816040516024016200063f919062000984565b6040516020818303038152906040527f41304fac000000000000000000000000000000000000000000000000000000007bffffffffffffffffffffffffffffffffffffffffffffffffffffffff19166020820180517bffffffffffffffffffffffffffffffffffffffffffffffffffffffff8381831617835250505050620006cb60201b60201c565b50565b60008151905060006a636f6e736f6c652e6c6f679050602083016000808483855afa5050505050565b8280546200070290620009d7565b90600052602060002090601f01602090048101928262000726576000855562000772565b82601f106200074157805160ff191683800117855562000772565b8280016001018555821562000772579182015b828111156200077157825182559160200191906001019062000754565b5b50905062000781919062000853565b5090565b828054828255906000526020600020908101928215620007d9579160200282015b82811115620007d8578251829080519060200190620007c7929190620006f4565b5091602001919060010190620007a6565b5b509050620007e8919062000872565b5090565b82805482825590600052602060002090810192821562000840579160200282015b828111156200083f5782518290805190602001906200082e929190620006f4565b50916020019190600101906200080d565b5b5090506200084f919062000872565b5090565b5b808211156200086e57600081600090555060010162000854565b5090565b5b808211156200089657600081816200088c91906200089a565b5060010162000873565b5090565b508054620008a890620009d7565b6000825580601f10620008bc5750620008dd565b601f016020900490600052602060002090810190620008dc919062000853565b5b50565b600081519050919050565b600082825260208201905092915050565b60005b838110156200091c578082015181840152602081019050620008ff565b838111156200092c576000848401525b50505050565b6000601f19601f8301169050919050565b60006200095082620008e0565b6200095c8185620008eb565b93506200096e818560208601620008fc565b620009798162000932565b840191505092915050565b60006020820190508181036000830152620009a0818462000943565b905092915050565b7f4e487b7100000000000000000000000000000000000000000000000000000000600052602260045260246000fd5b60006002820490506001821680620009f057607f821691505b6020821081141562000a075762000a06620009a8565b5b50919050565b6137a78062000a1d6000396000f3fe608060405234801561001057600080fd5b506004361061010b5760003560e01c806370a08231116100a2578063b187301f11610071578063b187301f146102b6578063b88d4fde146102e6578063c575757a14610302578063c87b56dd14610332578063e985e9c5146103625761010b565b806370a082311461024257806395d89b4114610272578063a22cb46514610290578063b036b4bd146102ac5761010b565b806323b872dd116100de57806323b872dd146101aa5780632de38d68146101c657806342842e0e146101f65780636352211e146102125761010b565b806301ffc9a71461011057806306fdde0314610140578063081812fc1461015e578063095ea7b31461018e575b600080fd5b61012a600480360381019061012591906122c2565b610392565b604051610137919061230a565b60405180910390f35b610148610474565b60405161015591906123be565b60405180910390f35b61017860048036038101906101739190612416565b610506565b6040516101859190612484565b60405180910390f35b6101a860048036038101906101a391906124cb565b61054c565b005b6101c460048036038101906101bf919061250b565b610664565b005b6101e060048036038101906101db9190612416565b6106c4565b6040516101ed91906123be565b60405180910390f35b610210600480360381019061020b919061250b565b61083a565b005b61022c60048036038101906102279190612416565b61085a565b6040516102399190612484565b60405180910390f35b61025c6004803603810190610257919061255e565b61090c565b604051610269919061259a565b60405180910390f35b61027a6109c4565b60405161028791906123be565b60405180910390f35b6102aa60048036038101906102a591906125e1565b610a56565b005b6102b4610a6c565b005b6102d060048036038101906102cb9190612416565b610cbc565b6040516102dd91906123be565b60405180910390f35b61030060048036038101906102fb9190612756565b610db4565b005b61031c60048036038101906103179190612416565b610e16565b60405161032991906123be565b60405180910390f35b61034c60048036038101906103479190612416565b610f0e565b60405161035991906123be565b60405180910390f35b61037c600480360381019061037791906127d9565b611021565b604051610389919061230a565b60405180910390f35b60007f80ac58cd000000000000000000000000000000000000000000000000000000007bffffffffffffffffffffffffffffffffffffffffffffffffffffffff1916827bffffffffffffffffffffffffffffffffffffffffffffffffffffffff1916148061045d57507f5b5e139f000000000000000000000000000000000000000000000000000000007bffffffffffffffffffffffffffffffffffffffffffffffffffffffff1916827bffffffffffffffffffffffffffffffffffffffffffffffffffffffff1916145b8061046d575061046c8261114e565b5b9050919050565b60606000805461048390612848565b80601f01602080910402602001604051908101604052809291908181526020018280546104af90612848565b80156104fc5780601f106104d1576101008083540402835291602001916104fc565b820191906000526020600020905b8154815290600101906020018083116104df57829003601f168201915b5050505050905090565b6000610511826111b8565b6004600083815260200190815260200160002060009054906101000a900473ffffffffffffffffffffffffffffffffffffffff169050919050565b60006105578261085a565b90508073ffffffffffffffffffffffffffffffffffffffff168373ffffffffffffffffffffffffffffffffffffffff1614156105c8576040517f08c379a00000000000000000000000000000000000000000000000000000000081526004016105bf906128ec565b60405180910390fd5b8073ffffffffffffffffffffffffffffffffffffffff166105e7611203565b73ffffffffffffffffffffffffffffffffffffffff161480610616575061061581610610611203565b611021565b5b610655576040517f08c379a000000000000000000000000000000000000000000000000000000000815260040161064c9061297e565b60405180910390fd5b61065f838361120b565b505050565b61067561066f611203565b826112c4565b6106b4576040517f08c379a00000000000000000000000000000000000000000000000000000000081526004016106ab90612a10565b60405180910390fd5b6106bf838383611359565b505050565b606060006106f86106d4846115c0565b6040516020016106e49190612ab8565b604051602081830303815290604052611721565b90506107396040518060400160405280600a81526020017f72616e6420736565643a0000000000000000000000000000000000000000000081525082611754565b6009805490508161074a9190612b09565b905061078b6040518060400160405280601081526020017f72616e6420666972737420776f72643a0000000000000000000000000000000081525082611754565b6009818154811061079f5761079e612b3a565b5b9060005260206000200180546107b490612848565b80601f01602080910402602001604051908101604052809291908181526020018280546107e090612848565b801561082d5780601f106108025761010080835404028352916020019161082d565b820191906000526020600020905b81548152906001019060200180831161081057829003601f168201915b5050505050915050919050565b61085583838360405180602001604052806000815250610db4565b505050565b6000806002600084815260200190815260200160002060009054906101000a900473ffffffffffffffffffffffffffffffffffffffff169050600073ffffffffffffffffffffffffffffffffffffffff168173ffffffffffffffffffffffffffffffffffffffff161415610903576040517f08c379a00000000000000000000000000000000000000000000000000000000081526004016108fa90612bb5565b60405180910390fd5b80915050919050565b60008073ffffffffffffffffffffffffffffffffffffffff168273ffffffffffffffffffffffffffffffffffffffff16141561097d576040517f08c379a000000000000000000000000000000000000000000000000000000000815260040161097490612c47565b60405180910390fd5b600360008373ffffffffffffffffffffffffffffffffffffffff1673ffffffffffffffffffffffffffffffffffffffff168152602001908152602001600020549050919050565b6060600180546109d390612848565b80601f01602080910402602001604051908101604052809291908181526020018280546109ff90612848565b8015610a4c5780601f10610a2157610100808354040283529160200191610a4c565b820191906000526020600020905b815481529060010190602001808311610a2f57829003601f168201915b5050505050905090565b610a68610a61611203565b83836117f0565b5050565b6000610a78600761195d565b90506000610a85826106c4565b90506000610a9283610cbc565b90506000610a9f84610e16565b90506000838383604051602001610ab893929190612c67565b60405160208183030381529060405290506000600882604051602001610adf929190612d78565b6040516020818303038152906040529050610b2e6040518060400160405280601581526020017f0a2d2d2d2d2d2d2d2d2d2d2d2d2d2d2d2d2d2d2d2d00000000000000000000008152506110b5565b610b37816110b5565b610b756040518060400160405280601581526020017f2d2d2d2d2d2d2d2d2d2d2d2d2d2d2d2d2d2d2d2d0a00000000000000000000008152506110b5565b6000610ba983610b848461196b565b604051602001610b95929190612efd565b60405160208183030381529060405261196b565b9050600081604051602001610bbe9190612f8e565b6040516020818303038152906040529050610c0d6040518060400160405280601581526020017f0a2d2d2d2d2d20546f6b656e20555249202d2d2d2d00000000000000000000008152506110b5565b610c16816110b5565b610c546040518060400160405280601581526020017f2d2d2d2d2d2d2d2d2d2d2d2d2d2d2d2d2d2d2d2d0a00000000000000000000008152506110b5565b610c5e3389611b03565b610c688882611b21565b610ca86040518060400160405280601f81526020017f4e465420772f20257320686173206265656e206d696e74656420746f202573008152508933611b95565b610cb26007611c34565b5050505050505050565b60606000610cf0610ccc846115c0565b604051602001610cdc9190612ffc565b604051602081830303815290604052611721565b9050600a8054905081610d039190612b09565b9050600a8181548110610d1957610d18612b3a565b5b906000526020600020018054610d2e90612848565b80601f0160208091040260200160405190810160405280929190818152602001828054610d5a90612848565b8015610da75780601f10610d7c57610100808354040283529160200191610da7565b820191906000526020600020905b815481529060010190602001808311610d8a57829003601f168201915b5050505050915050919050565b610dc5610dbf611203565b836112c4565b610e04576040517f08c379a0000000000000000000000000000000000000000000000000000000008152600401610dfb90612a10565b60405180910390fd5b610e1084848484611c4a565b50505050565b60606000610e4a610e26846115c0565b604051602001610e36919061306a565b604051602081830303815290604052611721565b9050600b8054905081610e5d9190612b09565b9050600b8181548110610e7357610e72612b3a565b5b906000526020600020018054610e8890612848565b80601f0160208091040260200160405190810160405280929190818152602001828054610eb490612848565b8015610f015780601f10610ed657610100808354040283529160200191610f01565b820191906000526020600020905b815481529060010190602001808311610ee457829003601f168201915b5050505050915050919050565b6060610f19826111b8565b6000600660008481526020019081526020016000208054610f3990612848565b80601f0160208091040260200160405190810160405280929190818152602001828054610f6590612848565b8015610fb25780601f10610f8757610100808354040283529160200191610fb2565b820191906000526020600020905b815481529060010190602001808311610f9557829003601f168201915b505050505090506000610fc3611ca6565b9050600081511415610fd957819250505061101c565b60008251111561100e578082604051602001610ff692919061308c565b6040516020818303038152906040529250505061101c565b61101784611cbd565b925050505b919050565b6000600560008473ffffffffffffffffffffffffffffffffffffffff1673ffffffffffffffffffffffffffffffffffffffff16815260200190815260200160002060008373ffffffffffffffffffffffffffffffffffffffff1673ffffffffffffffffffffffffffffffffffffffff16815260200190815260200160002060009054906101000a900460ff16905092915050565b61114b816040516024016110c991906123be565b6040516020818303038152906040527f41304fac000000000000000000000000000000000000000000000000000000007bffffffffffffffffffffffffffffffffffffffffffffffffffffffff19166020820180517bffffffffffffffffffffffffffffffffffffffffffffffffffffffff8381831617835250505050611d25565b50565b60007f01ffc9a7000000000000000000000000000000000000000000000000000000007bffffffffffffffffffffffffffffffffffffffffffffffffffffffff1916827bffffffffffffffffffffffffffffffffffffffffffffffffffffffff1916149050919050565b6111c181611d4e565b611200576040517f08c379a00000000000000000000000000000000000000000000000000000000081526004016111f790612bb5565b60405180910390fd5b50565b600033905090565b816004600083815260200190815260200160002060006101000a81548173ffffffffffffffffffffffffffffffffffffffff021916908373ffffffffffffffffffffffffffffffffffffffff160217905550808273ffffffffffffffffffffffffffffffffffffffff1661127e8361085a565b73ffffffffffffffffffffffffffffffffffffffff167f8c5be1e5ebec7d5bd14f71427d1e84f3dd0314c0f7b2291e5b200ac8c7c3b92560405160405180910390a45050565b6000806112d08361085a565b90508073ffffffffffffffffffffffffffffffffffffffff168473ffffffffffffffffffffffffffffffffffffffff16148061131257506113118185611021565b5b8061135057508373ffffffffffffffffffffffffffffffffffffffff1661133884610506565b73ffffffffffffffffffffffffffffffffffffffff16145b91505092915050565b8273ffffffffffffffffffffffffffffffffffffffff166113798261085a565b73ffffffffffffffffffffffffffffffffffffffff16146113cf576040517f08c379a00000000000000000000000000000000000000000000000000000000081526004016113c690613122565b60405180910390fd5b600073ffffffffffffffffffffffffffffffffffffffff168273ffffffffffffffffffffffffffffffffffffffff16141561143f576040517f08c379a0000000000000000000000000000000000000000000000000000000008152600401611436906131b4565b60405180910390fd5b61144a838383611dba565b61145560008261120b565b6001600360008573ffffffffffffffffffffffffffffffffffffffff1673ffffffffffffffffffffffffffffffffffffffff16815260200190815260200160002060008282546114a59190613203565b925050819055506001600360008473ffffffffffffffffffffffffffffffffffffffff1673ffffffffffffffffffffffffffffffffffffffff16815260200190815260200160002060008282546114fc9190613237565b92505081905550816002600083815260200190815260200160002060006101000a81548173ffffffffffffffffffffffffffffffffffffffff021916908373ffffffffffffffffffffffffffffffffffffffff160217905550808273ffffffffffffffffffffffffffffffffffffffff168473ffffffffffffffffffffffffffffffffffffffff167fddf252ad1be2c89b69c2b068fc378daa952ba7f163c4a11628f55a4df523b3ef60405160405180910390a46115bb838383611dbf565b505050565b60606000821415611608576040518060400160405280600181526020017f3000000000000000000000000000000000000000000000000000000000000000815250905061171c565b600082905060005b6000821461163a5780806116239061328d565b915050600a8261163391906132d6565b9150611610565b60008167ffffffffffffffff8111156116565761165561262b565b5b6040519080825280601f01601f1916602001820160405280156116885781602001600182028036833780820191505090505b5090505b60008514611715576001826116a19190613203565b9150600a856116b09190612b09565b60306116bc9190613237565b60f81b8183815181106116d2576116d1612b3a565b5b60200101907effffffffffffffffffffffffffffffffffffffffffffffffffffffffffffff1916908160001a905350600a8561170e91906132d6565b945061168c565b8093505050505b919050565b6000816040516020016117349190613307565b6040516020818303038152906040528051906020012060001c9050919050565b6117ec828260405160240161176a92919061331e565b6040516020818303038152906040527fb60e72cc000000000000000000000000000000000000000000000000000000007bffffffffffffffffffffffffffffffffffffffffffffffffffffffff19166020820180517bffffffffffffffffffffffffffffffffffffffffffffffffffffffff8381831617835250505050611d25565b5050565b8173ffffffffffffffffffffffffffffffffffffffff168373ffffffffffffffffffffffffffffffffffffffff16141561185f576040517f08c379a00000000000000000000000000000000000000000000000000000000081526004016118569061339a565b60405180910390fd5b80600560008573ffffffffffffffffffffffffffffffffffffffff1673ffffffffffffffffffffffffffffffffffffffff16815260200190815260200160002060008473ffffffffffffffffffffffffffffffffffffffff1673ffffffffffffffffffffffffffffffffffffffff16815260200190815260200160002060006101000a81548160ff0219169083151502179055508173ffffffffffffffffffffffffffffffffffffffff168373ffffffffffffffffffffffffffffffffffffffff167f17307eab39ab6107e8899845ad3d59bd9653f200f220920489ca2b5937696c3183604051611950919061230a565b60405180910390a3505050565b600081600001549050919050565b606060008251905060008114156119945760405180602001604052806000815250915050611afe565b600060036002836119a59190613237565b6119af91906132d6565b60046119bb91906133ba565b905060006020826119cc9190613237565b67ffffffffffffffff8111156119e5576119e461262b565b5b6040519080825280601f01601f191660200182016040528015611a175781602001600182028036833780820191505090505b5090506000604051806060016040528060408152602001613732604091399050600181016020830160005b86811015611abb5760038101905062ffffff818a015116603f8160121c168401518060081b905060ff603f83600c1c1686015116810190508060081b905060ff603f8360061c1686015116810190508060081b905060ff603f831686015116810190508060e01b90508084526004840193505050611a42565b506003860660018114611ad55760028114611ae557611af0565b613d3d60f01b6002830352611af0565b603d60f81b60018303525b508484525050819450505050505b919050565b611b1d828260405180602001604052806000815250611dc4565b5050565b611b2a82611d4e565b611b69576040517f08c379a0000000000000000000000000000000000000000000000000000000008152600401611b6090613486565b60405180910390fd5b80600660008481526020019081526020016000209080519060200190611b909291906121b3565b505050565b611c2f838383604051602401611bad939291906134a6565b6040516020818303038152906040527f1c7ec448000000000000000000000000000000000000000000000000000000007bffffffffffffffffffffffffffffffffffffffffffffffffffffffff19166020820180517bffffffffffffffffffffffffffffffffffffffffffffffffffffffff8381831617835250505050611d25565b505050565b6001816000016000828254019250508190555050565b611c55848484611359565b611c6184848484611e1f565b611ca0576040517f08c379a0000000000000000000000000000000000000000000000000000000008152600401611c9790613556565b60405180910390fd5b50505050565b606060405180602001604052806000815250905090565b6060611cc8826111b8565b6000611cd2611ca6565b90506000815111611cf25760405180602001604052806000815250611d1d565b80611cfc846115c0565b604051602001611d0d92919061308c565b6040516020818303038152906040525b915050919050565b60008151905060006a636f6e736f6c652e6c6f679050602083016000808483855afa5050505050565b60008073ffffffffffffffffffffffffffffffffffffffff166002600084815260200190815260200160002060009054906101000a900473ffffffffffffffffffffffffffffffffffffffff1673ffffffffffffffffffffffffffffffffffffffff1614159050919050565b505050565b505050565b611dce8383611fb6565b611ddb6000848484611e1f565b611e1a576040517f08c379a0000000000000000000000000000000000000000000000000000000008152600401611e1190613556565b60405180910390fd5b505050565b6000611e408473ffffffffffffffffffffffffffffffffffffffff16612190565b15611fa9578373ffffffffffffffffffffffffffffffffffffffff1663150b7a02611e69611203565b8786866040518563ffffffff1660e01b8152600401611e8b94939291906135cb565b602060405180830381600087803b158015611ea557600080fd5b505af1925050508015611ed657506040513d601f19601f82011682018060405250810190611ed3919061362c565b60015b611f59573d8060008114611f06576040519150601f19603f3d011682016040523d82523d6000602084013e611f0b565b606091505b50600081511415611f51576040517f08c379a0000000000000000000000000000000000000000000000000000000008152600401611f4890613556565b60405180910390fd5b805181602001fd5b63150b7a0260e01b7bffffffffffffffffffffffffffffffffffffffffffffffffffffffff1916817bffffffffffffffffffffffffffffffffffffffffffffffffffffffff191614915050611fae565b600190505b949350505050565b600073ffffffffffffffffffffffffffffffffffffffff168273ffffffffffffffffffffffffffffffffffffffff161415612026576040517f08c379a000000000000000000000000000000000000000000000000000000000815260040161201d906136a5565b60405180910390fd5b61202f81611d4e565b1561206f576040517f08c379a000000000000000000000000000000000000000000000000000000000815260040161206690613711565b60405180910390fd5b61207b60008383611dba565b6001600360008473ffffffffffffffffffffffffffffffffffffffff1673ffffffffffffffffffffffffffffffffffffffff16815260200190815260200160002060008282546120cb9190613237565b92505081905550816002600083815260200190815260200160002060006101000a81548173ffffffffffffffffffffffffffffffffffffffff021916908373ffffffffffffffffffffffffffffffffffffffff160217905550808273ffffffffffffffffffffffffffffffffffffffff16600073ffffffffffffffffffffffffffffffffffffffff167fddf252ad1be2c89b69c2b068fc378daa952ba7f163c4a11628f55a4df523b3ef60405160405180910390a461218c60008383611dbf565b5050565b6000808273ffffffffffffffffffffffffffffffffffffffff163b119050919050565b8280546121bf90612848565b90600052602060002090601f0160209004810192826121e15760008555612228565b82601f106121fa57805160ff1916838001178555612228565b82800160010185558215612228579182015b8281111561222757825182559160200191906001019061220c565b5b5090506122359190612239565b5090565b5b8082111561225257600081600090555060010161223a565b5090565b6000604051905090565b600080fd5b600080fd5b60007fffffffff0000000000000000000000000000000000000000000000000000000082169050919050565b61229f8161226a565b81146122aa57600080fd5b50565b6000813590506122bc81612296565b92915050565b6000602082840312156122d8576122d7612260565b5b60006122e6848285016122ad565b91505092915050565b60008115159050919050565b612304816122ef565b82525050565b600060208201905061231f60008301846122fb565b92915050565b600081519050919050565b600082825260208201905092915050565b60005b8381101561235f578082015181840152602081019050612344565b8381111561236e576000848401525b50505050565b6000601f19601f8301169050919050565b600061239082612325565b61239a8185612330565b93506123aa818560208601612341565b6123b381612374565b840191505092915050565b600060208201905081810360008301526123d88184612385565b905092915050565b6000819050919050565b6123f3816123e0565b81146123fe57600080fd5b50565b600081359050612410816123ea565b92915050565b60006020828403121561242c5761242b612260565b5b600061243a84828501612401565b91505092915050565b600073ffffffffffffffffffffffffffffffffffffffff82169050919050565b600061246e82612443565b9050919050565b61247e81612463565b82525050565b60006020820190506124996000830184612475565b92915050565b6124a881612463565b81146124b357600080fd5b50565b6000813590506124c58161249f565b92915050565b600080604083850312156124e2576124e1612260565b5b60006124f0858286016124b6565b925050602061250185828601612401565b9150509250929050565b60008060006060848603121561252457612523612260565b5b6000612532868287016124b6565b9350506020612543868287016124b6565b925050604061255486828701612401565b9150509250925092565b60006020828403121561257457612573612260565b5b6000612582848285016124b6565b91505092915050565b612594816123e0565b82525050565b60006020820190506125af600083018461258b565b92915050565b6125be816122ef565b81146125c957600080fd5b50565b6000813590506125db816125b5565b92915050565b600080604083850312156125f8576125f7612260565b5b6000612606858286016124b6565b9250506020612617858286016125cc565b9150509250929050565b600080fd5b600080fd5b7f4e487b7100000000000000000000000000000000000000000000000000000000600052604160045260246000fd5b61266382612374565b810181811067ffffffffffffffff821117156126825761268161262b565b5b80604052505050565b6000612695612256565b90506126a1828261265a565b919050565b600067ffffffffffffffff8211156126c1576126c061262b565b5b6126ca82612374565b9050602081019050919050565b82818337600083830152505050565b60006126f96126f4846126a6565b61268b565b90508281526020810184848401111561271557612714612626565b5b6127208482856126d7565b509392505050565b600082601f83011261273d5761273c612621565b5b813561274d8482602086016126e6565b91505092915050565b600080600080608085870312156127705761276f612260565b5b600061277e878288016124b6565b945050602061278f878288016124b6565b93505060406127a087828801612401565b925050606085013567ffffffffffffffff8111156127c1576127c0612265565b5b6127cd87828801612728565b91505092959194509250565b600080604083850312156127f0576127ef612260565b5b60006127fe858286016124b6565b925050602061280f858286016124b6565b9150509250929050565b7f4e487b7100000000000000000000000000000000000000000000000000000000600052602260045260246000fd5b6000600282049050600182168061286057607f821691505b6020821081141561287457612873612819565b5b50919050565b7f4552433732313a20617070726f76616c20746f2063757272656e74206f776e6560008201527f7200000000000000000000000000000000000000000000000000000000000000602082015250565b60006128d6602183612330565b91506128e18261287a565b604082019050919050565b60006020820190508181036000830152612905816128c9565b9050919050565b7f4552433732313a20617070726f76652063616c6c6572206973206e6f7420746f60008201527f6b656e206f776e6572206e6f7220617070726f76656420666f7220616c6c0000602082015250565b6000612968603e83612330565b91506129738261290c565b604082019050919050565b600060208201905081810360008301526129978161295b565b9050919050565b7f4552433732313a2063616c6c6572206973206e6f7420746f6b656e206f776e6560008201527f72206e6f7220617070726f766564000000000000000000000000000000000000602082015250565b60006129fa602e83612330565b9150612a058261299e565b604082019050919050565b60006020820190508181036000830152612a29816129ed565b9050919050565b600081905092915050565b7f46495253545f574f524400000000000000000000000000000000000000000000600082015250565b6000612a71600a83612a30565b9150612a7c82612a3b565b600a82019050919050565b6000612a9282612325565b612a9c8185612a30565b9350612aac818560208601612341565b80840191505092915050565b6000612ac382612a64565b9150612acf8284612a87565b915081905092915050565b7f4e487b7100000000000000000000000000000000000000000000000000000000600052601260045260246000fd5b6000612b14826123e0565b9150612b1f836123e0565b925082612b2f57612b2e612ada565b5b828206905092915050565b7f4e487b7100000000000000000000000000000000000000000000000000000000600052603260045260246000fd5b7f4552433732313a20696e76616c696420746f6b656e2049440000000000000000600082015250565b6000612b9f601883612330565b9150612baa82612b69565b602082019050919050565b60006020820190508181036000830152612bce81612b92565b9050919050565b7f4552433732313a2061646472657373207a65726f206973206e6f74206120766160008201527f6c6964206f776e65720000000000000000000000000000000000000000000000602082015250565b6000612c31602983612330565b9150612c3c82612bd5565b604082019050919050565b60006020820190508181036000830152612c6081612c24565b9050919050565b6000612c738286612a87565b9150612c7f8285612a87565b9150612c8b8284612a87565b9150819050949350505050565b60008190508160005260206000209050919050565b60008154612cba81612848565b612cc48186612a30565b94506001821660008114612cdf5760018114612cf057612d23565b60ff19831686528186019350612d23565b612cf985612c98565b60005b83811015612d1b57815481890152600182019150602081019050612cfc565b838801955050505b50505092915050565b7f3c2f746578743e3c2f7376673e00000000000000000000000000000000000000600082015250565b6000612d62600d83612a30565b9150612d6d82612d2c565b600d82019050919050565b6000612d848285612cad565b9150612d908284612a87565b9150612d9b82612d55565b91508190509392505050565b7f7b226e616d65223a202200000000000000000000000000000000000000000000600082015250565b6000612ddd600a83612a30565b9150612de882612da7565b600a82019050919050565b7f222c20226465736372697074696f6e223a20224120686967686c79206163636c60008201527f61696d656420636f6c6c656374696f6e206f6620737175617265732e222c202260208201527f696d616765223a2022646174613a696d6167652f7376672b786d6c3b6261736560408201527f36342c0000000000000000000000000000000000000000000000000000000000606082015250565b6000612e9b606383612a30565b9150612ea682612df3565b606382019050919050565b7f227d000000000000000000000000000000000000000000000000000000000000600082015250565b6000612ee7600283612a30565b9150612ef282612eb1565b600282019050919050565b6000612f0882612dd0565b9150612f148285612a87565b9150612f1f82612e8e565b9150612f2b8284612a87565b9150612f3682612eda565b91508190509392505050565b7f646174613a6170706c69636174696f6e2f6a736f6e3b6261736536342c000000600082015250565b6000612f78601d83612a30565b9150612f8382612f42565b601d82019050919050565b6000612f9982612f6b565b9150612fa58284612a87565b915081905092915050565b7f5345434f4e445f574f5244000000000000000000000000000000000000000000600082015250565b6000612fe6600b83612a30565b9150612ff182612fb0565b600b82019050919050565b600061300782612fd9565b91506130138284612a87565b915081905092915050565b7f54484952445f574f524400000000000000000000000000000000000000000000600082015250565b6000613054600a83612a30565b915061305f8261301e565b600a82019050919050565b600061307582613047565b91506130818284612a87565b915081905092915050565b60006130988285612a87565b91506130a48284612a87565b91508190509392505050565b7f4552433732313a207472616e736665722066726f6d20696e636f72726563742060008201527f6f776e6572000000000000000000000000000000000000000000000000000000602082015250565b600061310c602583612330565b9150613117826130b0565b604082019050919050565b6000602082019050818103600083015261313b816130ff565b9050919050565b7f4552433732313a207472616e7366657220746f20746865207a65726f2061646460008201527f7265737300000000000000000000000000000000000000000000000000000000602082015250565b600061319e602483612330565b91506131a982613142565b604082019050919050565b600060208201905081810360008301526131cd81613191565b9050919050565b7f4e487b7100000000000000000000000000000000000000000000000000000000600052601160045260246000fd5b600061320e826123e0565b9150613219836123e0565b92508282101561322c5761322b6131d4565b5b828203905092915050565b6000613242826123e0565b915061324d836123e0565b9250827fffffffffffffffffffffffffffffffffffffffffffffffffffffffffffffffff03821115613282576132816131d4565b5b828201905092915050565b6000613298826123e0565b91507fffffffffffffffffffffffffffffffffffffffffffffffffffffffffffffffff8214156132cb576132ca6131d4565b5b600182019050919050565b60006132e1826123e0565b91506132ec836123e0565b9250826132fc576132fb612ada565b5b828204905092915050565b60006133138284612a87565b915081905092915050565b600060408201905081810360008301526133388185612385565b9050613347602083018461258b565b9392505050565b7f4552433732313a20617070726f766520746f2063616c6c657200000000000000600082015250565b6000613384601983612330565b915061338f8261334e565b602082019050919050565b600060208201905081810360008301526133b381613377565b9050919050565b60006133c5826123e0565b91506133d0836123e0565b9250817fffffffffffffffffffffffffffffffffffffffffffffffffffffffffffffffff0483118215151615613409576134086131d4565b5b828202905092915050565b7f45524337323155524953746f726167653a2055524920736574206f66206e6f6e60008201527f6578697374656e7420746f6b656e000000000000000000000000000000000000602082015250565b6000613470602e83612330565b915061347b82613414565b604082019050919050565b6000602082019050818103600083015261349f81613463565b9050919050565b600060608201905081810360008301526134c08186612385565b90506134cf602083018561258b565b6134dc6040830184612475565b949350505050565b7f4552433732313a207472616e7366657220746f206e6f6e20455243373231526560008201527f63656976657220696d706c656d656e7465720000000000000000000000000000602082015250565b6000613540603283612330565b915061354b826134e4565b604082019050919050565b6000602082019050818103600083015261356f81613533565b9050919050565b600081519050919050565b600082825260208201905092915050565b600061359d82613576565b6135a78185613581565b93506135b7818560208601612341565b6135c081612374565b840191505092915050565b60006080820190506135e06000830187612475565b6135ed6020830186612475565b6135fa604083018561258b565b818103606083015261360c8184613592565b905095945050505050565b60008151905061362681612296565b92915050565b60006020828403121561364257613641612260565b5b600061365084828501613617565b91505092915050565b7f4552433732313a206d696e7420746f20746865207a65726f2061646472657373600082015250565b600061368f602083612330565b915061369a82613659565b602082019050919050565b600060208201905081810360008301526136be81613682565b9050919050565b7f4552433732313a20746f6b656e20616c7265616479206d696e74656400000000600082015250565b60006136fb601c83612330565b9150613706826136c5565b602082019050919050565b6000602082019050818103600083015261372a816136ee565b905091905056fe4142434445464748494a4b4c4d4e4f505152535455565758595a6162636465666768696a6b6c6d6e6f707172737475767778797a303132333435363738392b2fa26469706673582212201c033861fcbc914d95079f911b2e0504967024600935c29b4d0a49428305ffe964736f6c634300080900333c73766720786d6c6e733d27687474703a2f2f7777772e77332e6f72672f323030302f73766727207072657365727665417370656374526174696f3d27784d696e594d696e206d656574272076696577426f783d273020302033353020333530273e3c7374796c653e2e62617365207b2066696c6c3a2077686974653b20666f6e742d66616d696c793a2073657269663b20666f6e742d73697a653a20323470783b207d3c2f7374796c653e3c726563742077696474683d273130302527206865696768743d2731303025272066696c6c3d27626c61636b27202f3e3c7465787420783d273530252720793d273530252720636c6173733d27626173652720646f6d696e616e742d626173656c696e653d276d6964646c652720746578742d616e63686f723d276d6964646c65273e",
  "linkReferences": {},
  "deployedLinkReferences": {}
}